:1000000038C1000052C1000050C100000C94BE086D
:100010004CC100004AC1000048C1000046C10000B8
:1000200044C1000042C100000C94090D3EC1000013
:100030003CC100003AC1000038C1000036C10000D8
:1000400034C100000C949B0830C100002EC1000098
:100050002CC1000074C5000028C1000026C10000AA
:1000600024C1000022C1000020C100001EC1000008
:100070001CC100001AC1000018C1000016C1000018
:1000800014C1000012C1000010C100000EC1000028
:100090000CC100000AC1000008C1000006C1000038
:1000A00004C1000002C1000000C100004269074312
:1000B000AF0344890345FA03466E03470D0448F134
:1000C00001504302522907537503561E0757DD0797
:1000D000581709659C076DC7096C8D07741C067855
:1000E000CC0400000053455420544F3A2000120124
:1000F000100102000008EB034B2000000102000188
:1001000009024300020100803209040000010202DA
:100110000100052400011005240103010424020646
:100120000524060001070582030800FF09040100F9
:10013000020A0000000705040240000007058302D0
:100140004000000403090416036200750073007781
:10015000006100720065002E006400650000002A46
:1001600003430055004C0038003600380000002AD8
:1001700003430055004C00340033003300000000FE
:10018000030F1E2627000000030F1E2536386700C8
:10019000030F256740605000030F275188838100BB
:1001A000030F2750C8C3C200270000000000000052
:1001B0006700000000000000500000000000000088
:1001C0008100000000000000C20000000000000DDF
:1001D0002E2D07D3913D04320000060021656A559B
:1001E000E43023B900070018146C070090876BF8FF
:1001F0005611E92A001F4100072E050DD391FF0873
:100200000500000C0021656A2D3B1322F862073FB0
:10021000181D1CC700B0876BF8B611EA2A001F41F1
:10022000004552524F52004F4B00202F2000203DDE
:1002300020005620312E34302043554C38363800BB
:100240005620312E34302043554C34333300202F88
:100250002000203D200020697320756E6B6E6F7743
:100260006E2920557365206F6E65206F66003F20F4
:10027000280011241FBECFEFDAE0DEBFCDBF11E0B2
:10028000A0E0B1E0EEE5FCE102C005900D92A634DD
:10029000B107D9F719E0A6E4B1E001C01D92A2347C
:1002A000B107E1F712D10C942D0EAACEF89481E09B
:1002B00085BF82E085BFE0E0F8E309950895A0E0FE
:1002C000B0E0E5E6F1E00C94E80D4091500150916A
:1002D0005101C0905201D09053014C155D0511F4AD
:1002E00080E07AC0E0903D01F0903E01C09158015D
:1002F000D0915901109155019091540100913A010A
:100300002091A1013091A201AA24BB24AE18BF08FC
:100310004CC0FA01EE0FFF1FE40FF51FE555FD4F2E
:1003200061817281620F731F72836183002361F0A8
:100330008081882331F04F5F5F4F517020E030E0C3
:1003400034C010E090E000E09B01A0E0B0E023C0EA
:100350002035310528F12639310520F1992321F482
:100360008081882389F01BC08081993049F48130D5
:10037000B1F4FE01E655FE4F10832196D0700FC0F8
:100380001695811180E8182B9F5F2A0D3B1D9A302E
:1003900030F4AE0DBF1DA617B707D0F201C001E0C3
:1003A00020E030E04F5F5F4F51704C155D0509F064
:1003B000B0CFD0935901C093580110935501909339
:1003C000540100933A013093A2012093A10150936C
:1003D00051014093500181E0CDB7DEB7EAE00C94C3
:1003E000040EA1E0B0E0E7EFF1E00C94EC0D109208
:1003F0006F001092570110925601109259011092FD
:1004000058018C010F5F1F4F7E010894E11CF11C05
:1004100011C08091580190915901FC01E655FE4FA1
:1004200029812083019690709093590180935801FF
:100430000E5F1F4FC801B70141E0CDD4892B49F7AA
:100440008FE416D48BE414D42BD420915601309130
:10045000570180915801909159012817390779F077
:1004600010925401769A80913D0190913E019093B3
:1004700089008093880082E086BB80936F0021967C
:10048000E6E00C94080EA1E0B0E0E9E4F2E00C94A0
:10049000F00D0196BE016F5F7F4F41E09CD4892B28
:1004A00079F0898180933D0110923E01F9D385EE68
:1004B00090E0FAD3898190E063E040E24DD4F0D33C
:1004C000EFD32196E2E00C940C0E1F932FE088E10D
:1004D00090E00FB6F894A895809360000FBE20932B
:1004E000600080E090E020E80FB6F894209361006F
:1004F000809361000FBE2E9A04B603FE0AC083E308
:1005000090E0A5D4882329F083E390E060E0DDD477
:10051000CDDE89EF87BD14E015BD82E084BD8093F8
:100520006E008FEF9FEF9093890080938800109268
:10053000800089E08093810010926F0084B7877FEC
:1005400084BF6E9AF0D626D50E94F00CAFD585E513
:1005500099E09093A4018093A30181E080934C01E2
:1005600080E091E0CAD11093390186E080934D017B
:100570008EE380934E01769880913101823009F0AC
:100580003DC09DDEE0915601F091570180915801E8
:1005900090915901E817F90789F1E655FE4F10814E
:1005A00090914601933068F4E92FF0E0E65DFE4F4C
:1005B0008081181721F49F5F9093460102C010922A
:1005C000460180914601833031F480E2DDD2812FF3
:1005D000BFD380E24DD380914601882329F01533A3
:1005E00019F45ED310924601809156019091570103
:1005F0000196907090935701809356010E94B90D17
:10060000E2D1C9D2B9CFDA01292F332722303105FF
:1006100059F02330310569F02130310561F54EEE96
:1006200050E022E130E02BC040E051E023E430E034
:1006300026C090708130910551F08130910518F0FD
:100640000297C9F40BC0E3E4F1E0849103C0E7E44E
:10065000F1E08491282F30E0AF0111C01E9B03C050
:100660004FE551E002C04FE651E0EFE5F1E0E491E3
:100670002E2F30E004C040E050E020E030E04D9309
:100680005C93C90108952898806C8EBD0DB407FE57
:10069000FDCF8EB51EBC0DB407FEFDCF8EB5289ADA
:1006A0000895289880648EBD0DB407FEFDCF8EB5E9
:1006B0006EBD0DB407FEFDCF8EB5289A089528981B
:1006C0008EBD0DB407FEFDCF8EB5289A0895EA9829
:1006D00086E3F5DF81E0809331010895F8CF089536
:1006E00086E3EDDF1092A5010895A1E0B0E0EBE70D
:1006F000F3E00C94F00D0196BE016F5F7F4F41E077
:100700006AD3892B11F08981DADF2196E2E00C941B
:100710000C0EA2E0B0E0EFE8F3E00C94EE0D8C01DB
:100720000196BE016F5F7F4F41E055D3892B79F071
:10073000C8010396BE016E5F7F4F41E04CD3892B09
:1007400031F089816A81ADDF87E292E002C081E207
:1007500092E0AAD2A5D22296E4E00C940A0EA1E07F
:10076000B0E0E5EBF3E00C94EE0D0196BE016F5F97
:100770007F4F41E030D3892B41F18981893989F458
:1007800000E010E0802F7FDFE3D2C8018770907017
:10079000079709F485D20F5F1F4F0033110591F7BA
:1007A00014C071DF182F83E463D28981D1D28EE225
:1007B00092E07AD2812FCCD28AE292E075D2812F58
:1007C00090E062E040E2C8D26BD22196E4E00C9463
:1007D0000A0E1F931FEF84E372DF8AE090E039D2A4
:1007E0001150C9F784E08CBBEA9A82E08093310112
:1007F0001F910895EECF08951F93EA9886E35FDF77
:100800001FEF85E35CDF8AE090E023D21150C9F747
:1008100083E0809331011F910895EECF0895EF9208
:10082000FF920F93CF93DF93082F8A3008F008E0F0
:10083000C02FD0E083E0CC0FDD1F8A95E1F7C158CF
:10084000DE4F8BE290E07C010894E11CF11CFE017C
:1008500064913BD32196C70183339105A1F70550DD
:10086000053010F067E101C061E184E290E02DD332
:10087000DF91CF910F91FF90EF900895CF93DF9389
:1008800082E090E0EC012196FE01E453FE4FE491FA
:100890006E2F1BD3CB32D10511F0CE01F3CF87E3FE
:1008A00090E0EC012196FE01E054FE4FE4916E2FA2
:1008B0000CD3C036D10511F0CE01F3CF1E9918C06C
:1008C0008FE090E060E101D380E190E060EBFDD249
:1008D00081E190E061E7F9D284E490E060E1F5D253
:1008E00085E490E060EBF1D286E490E061E7EDD240
:1008F00088E095DFDF91CF910895CF93DF93EC01EE
:10090000EA98209A289A8EE190E0A3D128988EE167
:1009100090E09FD1289A8DE290E09BD180E3CFDEDA
:1009200084E690E096D1289880E48EBD0DB407FE51
:10093000FDCF8EB590E088818EBD0DB407FEFDCF52
:100940008EB59F5F993211F02196F5CF289A28989D
:100950008EE78EBD0DB407FEFDCF8EB58BE290E025
:10096000EC01219674D28EBD0DB407FEFDCF8EB57D
:10097000C333D10511F0CE01F3CF289A83E39FDE74
:1009800081E06CD1DF91CF91089582E090E0B5DFF6
:1009900081E08093A5010895A1E0B0E0E2EDF4E0EC
:1009A0000C94F00D22E029830196BE016F5F7F4F0A
:1009B00041E011D2898133DF82E090E09EDF219611
:1009C000E2E00C940C0E80913509843009F066C089
:1009D0008093E90080914701882351F58091E800D8
:1009E00085FD06C025C06091F1008EEE98E02CD305
:1009F0008091F2009091F300892BA9F78091E80093
:100A0000982F9B7F9093E8008F778093E80081E098
:100A10008093470183EE94E09093A00180939F011F
:100A2000E091A301F091A40181E0099510924701A2
:100A300083E08093E9008091AD08882379F180916B
:100A4000E80085FD06C008958BEA98E012D38093F4
:100A5000F1008091AD08882339F08091F2009091E7
:100A6000F3008034910580F38091F2009091F300BF
:100A70002091E800322F3E7F3093E8002F772093BB
:100A8000E8008034910551F44CD68091E800982F0D
:100A90009E7F9093E8008F778093E800089590916F
:100AA000360980913709813229F0823251F1803242
:100AB00081F511C0913A69F58091E800877F8093B4
:100AC000E80082E391E067E070E056D68091E800AC
:100AD000982F9B7F10C09132E1F48091E800877FCE
:100AE0008093E80082E391E067E070E0E7D68091D0
:100AF000E800982F9E7F9093E8008F778093E8001E
:100B00000895913231F48091E800877F8093E80066
:100B1000DFC5089582E061EC42E0B0D583E061E892
:100B200042E3ACD584E060E842E3A8D510923201FC
:100B300010923301109234011092350108951F92E2
:100B40000F920FB60F9211248F939F93AF93BF9381
:100B50008091A6019091A701A091A801B091A9014F
:100B60000196A11DB11D8093A6019093A701A093AA
:100B7000A801B093A901BF91AF919F918F910F9060
:100B80000FBE0F901F90189598E0909339018093B5
:100B90004F01769A08959091A60180914A01981785
:100BA00009F449C090934A01A89580913901982F82
:100BB00083FF0AC080914F01882331F081508093D8
:100BC0004F01882309F4769892FF1AC080914F0153
:100BD000882399F48EB190E489278EB980914E01D3
:100BE00080934F0180914D01815080934D01882366
:100BF00039F410923901769803C0815080934F01E7
:100C0000809149018F5F8093490181508D3798F021
:100C1000109249018091390181FF04C08EB190E4A6
:100C200089278EB9809148018F5F809348018C336A
:100C300011F41092480108958091A90189D0809102
:100C4000A80186D08091A70183D08091A60180D091
:100C500027C0880F991F0197F1F7089520ED37E01D
:100C600004C0F9013197F1F781508823D1F7089535
:100C70001F93182F80913509843081F480914C01A5
:100C800080FF0CC08091AD08803408F09CDE8BEAB8
:100C900098E0612FD9D11A3009F495DE1F9108959B
:100CA0008DE0E6DF8AE0E4CFCF93DF93EC0102C072
:100CB000DFDF2196FE0184918823D1F7DF91CF9168
:100CC0000895CF93DF93EC0102C02196D1DF888194
:100CD0008823D9F7DF91CF910895A5E0B0E0E2E74E
:100CE000F6E07EC71D82FE01349624E0582F5F7027
:100CF00021505A3018F4352F305D02C0352F395C41
:100D0000308334E0969587953A95E1F761503197B5
:100D1000009761F72150822F992787FD90952F5FCB
:100D2000FE013196E80FF91F03C02150408331972F
:100D3000615067FD02C01216C4F3332727FD3095BA
:100D4000CE010196820F931FBCDF2596E2E064C7B7
:100D500090E062E040E3C1CFA6E0B0E0E1EBF6E076
:100D60003DC79C01162F042F1E82FE01359645E0DB
:100D70004150C9016AE070E00FD7805D8083C901EE
:100D80006AE070E009D79B0111506115710559F4B3
:100D90004150842F992787FD90954F5FFE01319632
:100DA000E80FF91F07C03197442311F7F1CF4150E5
:100DB00000833197115017FD02C01416C4F3242F7D
:100DC000332727FD3095CE010196820F931F79DFDF
:100DD0002696E4E01FC7DC01FB0123C0822F80536D
:100DE0008A3010F050E002C0382B51E0822F81543D
:100DF000863020F42753322B295C51E0822F815614
:100E0000863018F42755322B07C0552329F4203299
:100E100071F02A3361F00EC0992331F031934150C3
:100E200049F030E090E003C03295307F91E02D91A1
:100E30002223A1F6CF01861B970B08951E9903C0AC
:100E400080E492E002C082E392E02EDF29CFEFC679
:100E50000895EF92FF921F93DF93CF9300D0CDB709
:100E6000DEB71B8219820196BE016F5F7F4F42E0A1
:100E7000B2DF2981823041F4922F80E02A81E22E74
:100E8000FF24E82AF92A02C0E22EFF24C701DFDF8F
:100E9000182F82E5EDDEC70164E040E31EDF82E546
:100EA00092E002DF812F54DF8EE492E0FDDE812F9D
:100EB00090E062E040E250DFF3DE0F900F90CF91C0
:100EC000DF911F91FF90EF900895B9D6F999FECF69
:100ED0000895A1E0B0E0EEE6F7E082C6198200973F
:100EE00031F00196BE016F5F7F4F41E074DF898171
:100EF000882321F083E390E061E0E7DF5FD5109283
:100F00006E0028E088E190E00FB6F894A8958093F1
:100F100060000FBE20936000FFCF019669E371E08F
:100F200041E059DF6091390160FF02C0769A01C04B
:100F3000769884E390E0C9CF0F931F938C0180E0F3
:100F400090E061E0C2DF81E090E068E2BEDF96DC25
:100F500080E690E060E0B9DF81E690E060E0B5DF38
:100F600083E390E060E0B1DF84E390E062E0ADDF36
:100F700080E690E060E0A9DF81E690E060E0A5DF38
:100F8000F8018181883719F080E090E0A2DF1F919D
:100F90000F91089580E090E05ADF813029F481E0DC
:100FA00090E055DF883219F080E090E0C5DF84E3FF
:100FB00090E04DDF809339010895A6E0B0E0E2EEC5
:100FC000F7E008C66C010196BE016F5F7F4F43E0FA
:100FD00002DF082F8230A8F12981823019F4E22E35
:100FE000FF2407C0922F80E02A81E22EFF24E82A06
:100FF000F92A10E0FE01E00FF11FC701608165DFF3
:10100000000F111F0F5F1F4F0C0D1D1D0894E11CD9
:10101000F11C6E010894C11CD11C0FC0C801B6019F
:1010200041E0D9DE892B69F0C70169814EDF0E5F8F
:101030001F4F82E090E0E80EF91EF80180818823BE
:1010400069F72696E8E0E2C5DC0112968C911297CA
:10105000803470F48F5F12968C9312978C91FD01FF
:10106000E80FF11D63838F5F8C93803409F41C9229
:101070000895DC0112968C911297882311F490E068
:1010800013C0815012968C93129711968C911197E0
:10109000FD01E80FF11D93818F5F11968C931197DD
:1010A000803411F411961C92892F0895539A5B98FD
:1010B0005298E9E6F0E08081806180831092A5017A
:1010C000089590915401992311F520915601309182
:1010D000570180915801909159012817390729F437
:1010E00010926F005B9A769808955B98F901E65527
:1010F000FE4F8081809355012F5F3F4F30703093BA
:1011000057012093560181E080935401089599304E
:1011100021F45B9A1092540108958091550180FF4B
:1011200002C05B9A01C05B988695809355019F5FD2
:101130009093540108951F920F920FB60F921124AD
:101140002F933F934F935F936F937F938F939F93CF
:10115000AF93BF93EF93FF93B4DFFF91EF91BF91F4
:10116000AF919F918F917F916F915F914F913F913F
:101170002F910F900FBE0F901F9018951F920F92F6
:101180000FB60F9211242F933F934F935F938F933A
:101190009F93EF93FF9320918400309185001092EC
:1011A00085001092840089B190E096958795969578
:1011B0008795582F517080915B0190915C01280FA9
:1011C000391F30935C0120935B0140915A01541701
:1011D000D1F08091520190915301FC01EE0FFF1F5D
:1011E000E80FF91FE555FD4F4083328321830196B7
:1011F0009170909353018093520150935A01109231
:101200005C0110925B01FF91EF919F918F915F9133
:101210004F913F912F910F900FBE0F901F901895F7
:101220008091AA02882311F0B0DBD3CA59CAFC010D
:101230008181882321F48091AA028ADD31CDCF01FA
:1012400001966AEA72E041E0C6DDEACF0F931F9390
:10125000CF93DF93EC0100E0802F90E09C01220F00
:10126000331F280F391FF901E455FF4F1491F9017D
:10127000E355FF4F25913491112389F0209729F4EC
:1012800080E2F6DC812FF4DC08C08881811729F424
:10129000CE01F901099581E003C00F5FDDCF80E049
:1012A000DF91CF911F910F9108951F9310914C01E1
:1012B00080934C0130C08EEE98E0DBDE8A3011F076
:1012C0008D30E9F4E0915D01EE2329F1F0E0E25A7E
:1012D000FE4F10828EE591E0B9DF882369F48EE637
:1012E00092E0E2DC8EE591E0ECDC86E592E0DCDC8D
:1012F00080E090E0ABDFD4DC10925D010CC09091F7
:101300005D01903440F4E92FF0E0E25AFE4F808313
:101310009F5F90935D018091F008882361F61093A0
:101320004C011F910895E4E6F0E080818B7F80837B
:10133000299A84B1876084B9239880E58CBD8DB5E6
:1013400081608DBD089540913E0950913F0941153E
:10135000510521F4409141015091420120914301F6
:10136000309144012115310541F42DB73EB78091EC
:101370003F0190914001281B390B4217530718F089
:1013800020E030E002C0241B350BC901089582E43F
:101390006FDC80913E0990913F0965E040E2DCDC22
:1013A0007FDC83E565DC809141019091420165E03D
:1013B00040E2D2DC75DC85E45BDC809143019091F6
:1013C000440165E040E2C8DC6BDC86E451DCBBDF55
:1013D00065E040E2C1DC64CCA2E0B0E0E1EFF9E01E
:1013E000FFC3E6E3F9E08091F100819389E0EE33F9
:1013F000F807C9F78091360930913709353009F47B
:101400009FC0363048F4313009F44BC0313070F0B1
:10141000333009F021C145C0383009F4D6C0393025
:1014200009F4FBC0363009F017C1B4C0803821F090
:10143000823809F011C108C09091310980913209B8
:10144000882391F0926010C080913A098093E9005E
:101450008091EB0090E025E0969587952A95E1F73D
:10146000982F91701092E9008091E800877F809317
:10147000E8009093F1001092F1008091E800982F1D
:101480009E7F9093E8008F778093E80005C080915D
:101490003509882309F4E1C08091E80082FFF7CF85
:1014A000B2C0882319F0823009F0D6C090E08F7165
:1014B0009070009719F00297B9F50CC08091380927
:1014C000813009F0CAC010923209333069F5809337
:1014D00032092AC080913809882331F520913A09D0
:1014E000277009F4BAC02093E9008091EB0080FFD7
:1014F0001BC03130A1F48091EB0080618093EB0040
:1015000081E090E002C0880F991F2A95E2F780934E
:10151000EA001092EA008091EB00886003C080919D
:10152000EB0080628093EB001092E9008091E8006C
:10153000877F8093E8008091E800982F9E7F67C0A6
:10154000882309F089C0209138098091E800877FBD
:101550008093E8008091E800982F9E7F9093E800A8
:101560008F778093E80005C080913509882309F4BE
:1015700074C08091E80080FFF7CF922F9F77892F6A
:1015800080688093E300992309F467C083E0809327
:10159000350963C08058823008F05EC080913809F8
:1015A0009091390960913A09AE014F5F5F4F2BD896
:1015B000BC01009709F451C08091E800877F8093B7
:1015C000E80089819A8128D11EC0803809F044C082
:1015D0008091E800877F8093E800809133098093B1
:1015E000F1008091E800982F9E7F9093E8008F771C
:1015F0008093E80004C080913509882371F18091BF
:10160000E80082FFF8CF8091E800982F9B7F9093AD
:10161000E8008F778093E80020C08823E9F42091C8
:1016200038092230D0F48091E800877F8093E80069
:10163000209333098091E800982F9E7F9093E800D3
:101640008F778093E800222311F084E001C083E0CB
:10165000809335095FDA01C022DA8091E80083FFC8
:101660000AC08091EB0080628093EB008091E800DB
:10167000877F8093E8002296E2E0CEC28093E90063
:101680008091EB0081608093EB001092ED006093FD
:10169000EC004093ED008091EE00881F8827881FA2
:1016A00008951092F40090E09093E9001092F000F9
:1016B0001092E8008091ED008D7F8093ED00809185
:1016C000EB008E7F8093EB009F5F973069F7089562
:1016D000809136098823BCF404C0809135098823A1
:1016E000F9F08091E80082FFF8CF8091E800982F10
:1016F0009B7F9093E8008F778093E8000895809116
:101700003509882369F08091E80080FFF8CF809147
:10171000E800982F9E7F9093E8008F778093E800F1
:10172000089594E68091EC0080FF05C08091E80068
:1017300080FF05C01FC08091E80082FD1BC0809122
:101740003509882311F482E008958091EB0085FF2C
:1017500002C081E008958091E10082FFE3CF809193
:10176000E1008B7F8093E100992311F483E00895D9
:101770009150D8CF80E00895FC0140913C095091F0
:101780003D099B014617570708F49A0140E032C013
:101790008091E80083FF02C081E008958091E80015
:1017A00082FD32C0809135098823A1F18091E80043
:1017B00080FF20C005C081918093F100215030400E
:1017C0002115310531F08091F2009091F3000897D6
:1017D00090F38091F2009091F30040E0089709F4B3
:1017E00041E08091E800982F9E7F9093E8008F77EA
:1017F0008093E8002115310559F6442349F604C0C9
:1018000080913509882331F08091E80082FFF8CF7C
:1018100080E0089582E00895DC0140913C095091F8
:101820003D099B014617570708F49A0140E034C070
:101830008091E80083FF02C081E008958091E80074
:1018400082FD34C0809135098823B1F18091E80090
:1018500080FF22C007C0FD011196E491E093F100E2
:10186000215030402115310531F08091F2009091E6
:10187000F300089780F38091F2009091F30040E02C
:10188000089709F441E08091E800982F9E7F90939B
:10189000E8008F778093E8002115310549F644234D
:1018A00039F604C080913509882331F08091E80031
:1018B00082FFF8CF80E0089582E00895FC0124C003
:1018C0008091E80083FF02C081E00895809135098E
:1018D000882341F18091E80082FFF2CF06C0809119
:1018E000F10081936150704031F08091F20090914D
:1018F000F300892BA1F78091E800982F9B7F9093AC
:10190000E8008F778093E80061157105C9F604C07F
:1019100080913509882331F08091E80080FFF8CF6D
:1019200080E0089582E0089567D06ED01092350966
:101930001092330910923209109231098AE482BF61
:1019400019BC89B5826089BD09B400FEFDCF8091C4
:10195000D800982F9F779093D80080688093D80004
:101960008091D70081608093D7008091D8008F7DCF
:101970008093D8008091E0008B7F8093E00080917D
:10198000E0008E7F8093E0008091E1008E7F809365
:10199000E1008091E20081608093E2008091E100AB
:1019A000877F8093E1008091E20088608093E2006D
:1019B0008091D80081608093D8000895B5DFE0EE73
:1019C000F0E0808181608083E8EDF0E080818F77B6
:1019D000808319BC80818F7E8083109234090895A2
:1019E000A3DFE8EDF0E080818061808381E0809377
:1019F0003409789408950895E8EDF0E080818E7FB1
:101A000080831092E20008951092DA001092E100B3
:101A100008951F920F920FB60F9211242F933F93A8
:101A20004F935F936F937F938F939F93AF93BF93E6
:101A3000EF93FF938091DA0080FF15C08091D8006A
:101A400080FF11C08091DA008E7F8093DA00809150
:101A5000D90080FF05C081E080933509CCDF03C049
:101A600010923509C8DF8091E10080FF1DC0809190
:101A7000E20080FF19C08091E1008E7F8093E10039
:101A80008091E2008E7F8093E2008091E20080618D
:101A90008093E2008091D80080628093D80019BCC6
:101AA00085E080933509A7DF8091E10084FF29C09C
:101AB0008091E20084FF25C019BC89B5826089BD90
:101AC00009B400FEFDCF8091D8008F7D8093D800AF
:101AD0008091E1008F7E8093E1008091E2008F7E13
:101AE0008093E2008091E20081608093E200809127
:101AF0003309882311F483E001C084E08093350921
:101B00007ADF8091E10083FF23C08091E20083FFB0
:101B10001FC08091E100877F8093E10082E0809385
:101B20003509109233098091E1008E7F8093E100A6
:101B30008091E2008E7F8093E2008091E2008061DC
:101B40008093E200AEDD80E060E042E097DD53DFAD
:101B5000FF91EF91BF91AF919F918F917F916F9185
:101B60005F914F913F912F910F900FBE0F901F905B
:101B700018951F9380913509882361F01091E90031
:101B80001092E9008091E80083FF01C025DC177006
:101B90001093E9001F910895AA1BBB1B51E107C0D8
:101BA000AA1FBB1FA617B70710F0A61BB70B881FED
:101BB000991F5A95A9F780959095BC01CD0108957C
:101BC0002F923F924F925F926F927F928F929F924D
:101BD000AF92BF92CF92DF92EF92FF920F931F933B
:101BE000CF93DF93CDB7DEB7CA1BDB0B0FB6F894EC
:101BF000DEBF0FBECDBF09942A88398848885F842C
:101C00006E847D848C849B84AA84B984C884DF809C
:101C1000EE80FD800C811B81AA81B981CE0FD11D80
:101C20000FB6F894DEBF0FBECDBFED010895F99950
:101C3000FECF92BD81BDF89A992780B50895262FD1
:101C4000F999FECF1FBA92BD81BD20BD0FB6F894A1
:0E1C5000FA9AF99A0FBE01960895F894FFCF04
:101C5E000D2E2D07D391FF0032000006002165CC1A
:101C6E006A831022F850073018166C434091876B28
:101C7E00F85610E92A001F41004433555350009680
:101C8E0000018025000000000802010001D00020A4
:061C9E00004209000000F5
:00000001FF
